{
  "contractName": "customToken",
  "abi": [
    {
      "inputs": [
        {
          "internalType": "string",
          "name": "name_",
          "type": "string"
        },
        {
          "internalType": "string",
          "name": "symbol_",
          "type": "string"
        },
        {
          "internalType": "uint8",
          "name": "decimals_",
          "type": "uint8"
        },
        {
          "internalType": "uint256",
          "name": "initialSupply_",
          "type": "uint256"
        },
        {
          "internalType": "uint256",
          "name": "buyTaxPercentage_",
          "type": "uint256"
        },
        {
          "internalType": "uint256",
          "name": "sellTaxPercentage_",
          "type": "uint256"
        },
        {
          "internalType": "uint256",
          "name": "feePercentage_",
          "type": "uint256"
        },
        {
          "internalType": "address",
          "name": "feeConversionWallet_",
          "type": "address"
        }
      ],
      "stateMutability": "nonpayable",
      "type": "constructor"
    },
    {
      "anonymous": false,
      "inputs": [
        {
          "indexed": true,
          "internalType": "address",
          "name": "owner",
          "type": "address"
        },
        {
          "indexed": true,
          "internalType": "address",
          "name": "spender",
          "type": "address"
        },
        {
          "indexed": false,
          "internalType": "uint256",
          "name": "value",
          "type": "uint256"
        }
      ],
      "name": "Approval",
      "type": "event"
    },
    {
      "anonymous": false,
      "inputs": [
        {
          "indexed": true,
          "internalType": "address",
          "name": "from",
          "type": "address"
        },
        {
          "indexed": true,
          "internalType": "address",
          "name": "to",
          "type": "address"
        },
        {
          "indexed": false,
          "internalType": "uint256",
          "name": "value",
          "type": "uint256"
        }
      ],
      "name": "Transfer",
      "type": "event"
    },
    {
      "inputs": [
        {
          "internalType": "address",
          "name": "owner",
          "type": "address"
        },
        {
          "internalType": "address",
          "name": "spender",
          "type": "address"
        }
      ],
      "name": "allowance",
      "outputs": [
        {
          "internalType": "uint256",
          "name": "",
          "type": "uint256"
        }
      ],
      "stateMutability": "view",
      "type": "function",
      "constant": true
    },
    {
      "inputs": [
        {
          "internalType": "address",
          "name": "spender",
          "type": "address"
        },
        {
          "internalType": "uint256",
          "name": "amount",
          "type": "uint256"
        }
      ],
      "name": "approve",
      "outputs": [
        {
          "internalType": "bool",
          "name": "",
          "type": "bool"
        }
      ],
      "stateMutability": "nonpayable",
      "type": "function"
    },
    {
      "inputs": [],
      "name": "decimals",
      "outputs": [
        {
          "internalType": "uint8",
          "name": "",
          "type": "uint8"
        }
      ],
      "stateMutability": "view",
      "type": "function",
      "constant": true
    },
    {
      "inputs": [
        {
          "internalType": "address",
          "name": "spender",
          "type": "address"
        },
        {
          "internalType": "uint256",
          "name": "subtractedValue",
          "type": "uint256"
        }
      ],
      "name": "decreaseAllowance",
      "outputs": [
        {
          "internalType": "bool",
          "name": "",
          "type": "bool"
        }
      ],
      "stateMutability": "nonpayable",
      "type": "function"
    },
    {
      "inputs": [
        {
          "internalType": "address",
          "name": "spender",
          "type": "address"
        },
        {
          "internalType": "uint256",
          "name": "addedValue",
          "type": "uint256"
        }
      ],
      "name": "increaseAllowance",
      "outputs": [
        {
          "internalType": "bool",
          "name": "",
          "type": "bool"
        }
      ],
      "stateMutability": "nonpayable",
      "type": "function"
    },
    {
      "inputs": [],
      "name": "name",
      "outputs": [
        {
          "internalType": "string",
          "name": "",
          "type": "string"
        }
      ],
      "stateMutability": "view",
      "type": "function",
      "constant": true
    },
    {
      "inputs": [],
      "name": "symbol",
      "outputs": [
        {
          "internalType": "string",
          "name": "",
          "type": "string"
        }
      ],
      "stateMutability": "view",
      "type": "function",
      "constant": true
    },
    {
      "inputs": [],
      "name": "totalSupply",
      "outputs": [
        {
          "internalType": "uint256",
          "name": "",
          "type": "uint256"
        }
      ],
      "stateMutability": "view",
      "type": "function",
      "constant": true
    },
    {
      "inputs": [
        {
          "internalType": "address",
          "name": "to",
          "type": "address"
        },
        {
          "internalType": "uint256",
          "name": "amount",
          "type": "uint256"
        }
      ],
      "name": "transfer",
      "outputs": [
        {
          "internalType": "bool",
          "name": "",
          "type": "bool"
        }
      ],
      "stateMutability": "nonpayable",
      "type": "function"
    },
    {
      "inputs": [
        {
          "internalType": "address",
          "name": "from",
          "type": "address"
        },
        {
          "internalType": "address",
          "name": "to",
          "type": "address"
        },
        {
          "internalType": "uint256",
          "name": "amount",
          "type": "uint256"
        }
      ],
      "name": "transferFrom",
      "outputs": [
        {
          "internalType": "bool",
          "name": "",
          "type": "bool"
        }
      ],
      "stateMutability": "nonpayable",
      "type": "function"
    },
    {
      "inputs": [
        {
          "internalType": "uint256",
          "name": "amount",
          "type": "uint256"
        }
      ],
      "name": "convertToEth",
      "outputs": [
        {
          "internalType": "uint256",
          "name": "",
          "type": "uint256"
        }
      ],
      "stateMutability": "view",
      "type": "function",
      "constant": true
    },
    {
      "inputs": [
        {
          "internalType": "address",
          "name": "account",
          "type": "address"
        }
      ],
      "name": "balanceOf",
      "outputs": [
        {
          "internalType": "uint256",
          "name": "",
          "type": "uint256"
        }
      ],
      "stateMutability": "view",
      "type": "function",
      "constant": true
    }
  ],
  "bytecode": "0x608060405234801562000010575f80fd5b5060405162001e1338038062001e138339818101604052810190620000369190620004d9565b8787816003908162000049919062000809565b5080600490816200005b919062000809565b50505087600590816200006f919062000809565b50866006908162000081919062000809565b508560075f6101000a81548160ff021916908360ff160217905550620000ae33866200011160201b60201c565b836008819055508260098190555081600a8190555080600b5f6101000a81548173ffffffffffffffffffffffffffffffffffffffff021916908373ffffffffffffffffffffffffffffffffffffffff1602179055505050505050505050620009fe565b5f73ffffffffffffffffffffffffffffffffffffffff168273ffffffffffffffffffffffffffffffffffffffff160362000182576040517f08c379a000000000000000000000000000000000000000000000000000000000815260040162000179906200094b565b60405180910390fd5b620001955f83836200027660201b60201c565b8060025f828254620001a8919062000998565b92505081905550805f808473ffffffffffffffffffffffffffffffffffffffff1673ffffffffffffffffffffffffffffffffffffffff1681526020019081526020015f205f82825401925050819055508173ffffffffffffffffffffffffffffffffffffffff165f73ffffffffffffffffffffffffffffffffffffffff167fddf252ad1be2c89b69c2b068fc378daa952ba7f163c4a11628f55a4df523b3ef83604051620002579190620009e3565b60405180910390a3620002725f83836200027b60201b60201c565b5050565b505050565b505050565b5f604051905090565b5f80fd5b5f80fd5b5f80fd5b5f80fd5b5f601f19601f8301169050919050565b7f4e487b71000000000000000000000000000000000000000000000000000000005f52604160045260245ffd5b620002e18262000299565b810181811067ffffffffffffffff82111715620003035762000302620002a9565b5b80604052505050565b5f6200031762000280565b9050620003258282620002d6565b919050565b5f67ffffffffffffffff821115620003475762000346620002a9565b5b620003528262000299565b9050602081019050919050565b5f5b838110156200037e57808201518184015260208101905062000361565b5f8484015250505050565b5f6200039f62000399846200032a565b6200030c565b905082815260208101848484011115620003be57620003bd62000295565b5b620003cb8482856200035f565b509392505050565b5f82601f830112620003ea57620003e962000291565b5b8151620003fc84826020860162000389565b91505092915050565b5f60ff82169050919050565b6200041c8162000405565b811462000427575f80fd5b50565b5f815190506200043a8162000411565b92915050565b5f819050919050565b620004548162000440565b81146200045f575f80fd5b50565b5f81519050620004728162000449565b92915050565b5f73ffffffffffffffffffffffffffffffffffffffff82169050919050565b5f620004a38262000478565b9050919050565b620004b58162000497565b8114620004c0575f80fd5b50565b5f81519050620004d381620004aa565b92915050565b5f805f805f805f80610100898b031215620004f957620004f862000289565b5b5f89015167ffffffffffffffff8111156200051957620005186200028d565b5b620005278b828c01620003d3565b985050602089015167ffffffffffffffff8111156200054b576200054a6200028d565b5b620005598b828c01620003d3565b97505060406200056c8b828c016200042a565b96505060606200057f8b828c0162000462565b9550506080620005928b828c0162000462565b94505060a0620005a58b828c0162000462565b93505060c0620005b88b828c0162000462565b92505060e0620005cb8b828c01620004c3565b9150509295985092959890939650565b5f81519050919050565b7f4e487b71000000000000000000000000000000000000000000000000000000005f52602260045260245ffd5b5f60028204905060018216806200062a57607f821691505b60208210810362000640576200063f620005e5565b5b50919050565b5f819050815f5260205f209050919050565b5f6020601f8301049050919050565b5f82821b905092915050565b5f60088302620006a47fffffffffffffffffffffffffffffffffffffffffffffffffffffffffffffffff8262000667565b620006b0868362000667565b95508019841693508086168417925050509392505050565b5f819050919050565b5f620006f1620006eb620006e58462000440565b620006c8565b62000440565b9050919050565b5f819050919050565b6200070c83620006d1565b620007246200071b82620006f8565b84845462000673565b825550505050565b5f90565b6200073a6200072c565b6200074781848462000701565b505050565b5b818110156200076e57620007625f8262000730565b6001810190506200074d565b5050565b601f821115620007bd57620007878162000646565b620007928462000658565b81016020851015620007a2578190505b620007ba620007b18562000658565b8301826200074c565b50505b505050565b5f82821c905092915050565b5f620007df5f1984600802620007c2565b1980831691505092915050565b5f620007f98383620007ce565b9150826002028217905092915050565b6200081482620005db565b67ffffffffffffffff81111562000830576200082f620002a9565b5b6200083c825462000612565b6200084982828562000772565b5f60209050601f8311600181146200087f575f84156200086a578287015190505b620008768582620007ec565b865550620008e5565b601f1984166200088f8662000646565b5f5b82811015620008b85784890151825560018201915060208501945060208101905062000891565b86831015620008d85784890151620008d4601f891682620007ce565b8355505b6001600288020188555050505b505050505050565b5f82825260208201905092915050565b7f45524332303a206d696e7420746f20746865207a65726f2061646472657373005f82015250565b5f62000933601f83620008ed565b91506200094082620008fd565b602082019050919050565b5f6020820190508181035f830152620009648162000925565b9050919050565b7f4e487b71000000000000000000000000000000000000000000000000000000005f52601160045260245ffd5b5f620009a48262000440565b9150620009b18362000440565b9250828201905080821115620009cc57620009cb6200096b565b5b92915050565b620009dd8162000440565b82525050565b5f602082019050620009f85f830184620009d2565b92915050565b6114078062000a0c5f395ff3fe608060405234801561000f575f80fd5b50600436106100b2575f3560e01c806370a082311161006f57806370a08231146101a057806395d89b41146101d0578063a457c2d7146101ee578063a9059cbb1461021e578063dd62ed3e1461024e578063fe18d6e61461027e576100b2565b806306fdde03146100b6578063095ea7b3146100d457806318160ddd1461010457806323b872dd14610122578063313ce567146101525780633950935114610170575b5f80fd5b6100be6102ae565b6040516100cb9190610bad565b60405180910390f35b6100ee60048036038101906100e99190610c5e565b61033e565b6040516100fb9190610cb6565b60405180910390f35b61010c610360565b6040516101199190610cde565b60405180910390f35b61013c60048036038101906101379190610cf7565b610369565b6040516101499190610cb6565b60405180910390f35b61015a610397565b6040516101679190610d62565b60405180910390f35b61018a60048036038101906101859190610c5e565b61039f565b6040516101979190610cb6565b60405180910390f35b6101ba60048036038101906101b59190610d7b565b6103d5565b6040516101c79190610cde565b60405180910390f35b6101d86103e6565b6040516101e59190610bad565b60405180910390f35b61020860048036038101906102039190610c5e565b610476565b6040516102159190610cb6565b60405180910390f35b61023860048036038101906102339190610c5e565b6104eb565b6040516102459190610cb6565b60405180910390f35b61026860048036038101906102639190610da6565b61050d565b6040516102759190610cde565b60405180910390f35b61029860048036038101906102939190610de4565b61058f565b6040516102a59190610cde565b60405180910390f35b6060600380546102bd90610e3c565b80601f01602080910402602001604051908101604052809291908181526020018280546102e990610e3c565b80156103345780601f1061030b57610100808354040283529160200191610334565b820191905f5260205f20905b81548152906001019060200180831161031757829003601f168201915b5050505050905090565b5f806103486105d8565b90506103558185856105df565b600191505092915050565b5f600254905090565b5f806103736105d8565b90506103808582856107a2565b61038b85858561082d565b60019150509392505050565b5f6012905090565b5f806103a96105d8565b90506103ca8185856103bb858961050d565b6103c59190610e99565b6105df565b600191505092915050565b5f6103df82610ade565b9050919050565b6060600480546103f590610e3c565b80601f016020809104026020016040519081016040528092919081815260200182805461042190610e3c565b801561046c5780601f106104435761010080835404028352916020019161046c565b820191905f5260205f20905b81548152906001019060200180831161044f57829003601f168201915b5050505050905090565b5f806104806105d8565b90505f61048d828661050d565b9050838110156104d2576040517f08c379a00000000000000000000000000000000000000000000000000000000081526004016104c990610f3c565b60405180910390fd5b6104df82868684036105df565b60019250505092915050565b5f806104f56105d8565b905061050281858561082d565b600191505092915050565b5f60015f8473ffffffffffffffffffffffffffffffffffffffff1673ffffffffffffffffffffffffffffffffffffffff1681526020019081526020015f205f8373ffffffffffffffffffffffffffffffffffffffff1673ffffffffffffffffffffffffffffffffffffffff1681526020019081526020015f2054905092915050565b5f8060075f9054906101000a900460ff1660ff16600a6105af9190611089565b670de0b6b3a7640000846105c391906110d3565b6105cd9190611141565b905080915050919050565b5f33905090565b5f73ffffffffffffffffffffffffffffffffffffffff168373ffffffffffffffffffffffffffffffffffffffff160361064d576040517f08c379a0000000000000000000000000000000000000000000000000000000008152600401610644906111e1565b60405180910390fd5b5f73ffffffffffffffffffffffffffffffffffffffff168273ffffffffffffffffffffffffffffffffffffffff16036106bb576040517f08c379a00000000000000000000000000000000000000000000000000000000081526004016106b29061126f565b60405180910390fd5b8060015f8573ffffffffffffffffffffffffffffffffffffffff1673ffffffffffffffffffffffffffffffffffffffff1681526020019081526020015f205f8473ffffffffffffffffffffffffffffffffffffffff1673ffffffffffffffffffffffffffffffffffffffff1681526020019081526020015f20819055508173ffffffffffffffffffffffffffffffffffffffff168373ffffffffffffffffffffffffffffffffffffffff167f8c5be1e5ebec7d5bd14f71427d1e84f3dd0314c0f7b2291e5b200ac8c7c3b925836040516107959190610cde565b60405180910390a3505050565b5f6107ad848461050d565b90507fffffffffffffffffffffffffffffffffffffffffffffffffffffffffffffffff81146108275781811015610819576040517f08c379a0000000000000000000000000000000000000000000000000000000008152600401610810906112d7565b60405180910390fd5b61082684848484036105df565b5b50505050565b5f3073ffffffffffffffffffffffffffffffffffffffff168373ffffffffffffffffffffffffffffffffffffffff16146108695760085461086d565b6009545b90505f811115610a72575f6064828461088691906110d3565b6108909190611141565b90505f818461089f91906112f5565b90505f600a5411156109a1575f6064600a54846108bc91906110d3565b6108c69190611141565b90505f6108d28261058f565b90505f600b5f9054906101000a900473ffffffffffffffffffffffffffffffffffffffff1673ffffffffffffffffffffffffffffffffffffffff168260405161091a90611355565b5f6040518083038185875af1925050503d805f8114610954576040519150601f19603f3d011682016040523d82523d5f602084013e610959565b606091505b505090508061099d576040517f08c379a0000000000000000000000000000000000000000000000000000000008152600401610994906113b3565b60405180910390fd5b5050505b3073ffffffffffffffffffffffffffffffffffffffff168673ffffffffffffffffffffffffffffffffffffffff167fddf252ad1be2c89b69c2b068fc378daa952ba7f163c4a11628f55a4df523b3ef846040516109fe9190610cde565b60405180910390a38473ffffffffffffffffffffffffffffffffffffffff168673ffffffffffffffffffffffffffffffffffffffff167fddf252ad1be2c89b69c2b068fc378daa952ba7f163c4a11628f55a4df523b3ef83604051610a639190610cde565b60405180910390a35050610ad8565b8273ffffffffffffffffffffffffffffffffffffffff168473ffffffffffffffffffffffffffffffffffffffff167fddf252ad1be2c89b69c2b068fc378daa952ba7f163c4a11628f55a4df523b3ef84604051610acf9190610cde565b60405180910390a35b50505050565b5f805f8373ffffffffffffffffffffffffffffffffffffffff1673ffffffffffffffffffffffffffffffffffffffff1681526020019081526020015f20549050919050565b5f81519050919050565b5f82825260208201905092915050565b5f5b83811015610b5a578082015181840152602081019050610b3f565b5f8484015250505050565b5f601f19601f8301169050919050565b5f610b7f82610b23565b610b898185610b2d565b9350610b99818560208601610b3d565b610ba281610b65565b840191505092915050565b5f6020820190508181035f830152610bc58184610b75565b905092915050565b5f80fd5b5f73ffffffffffffffffffffffffffffffffffffffff82169050919050565b5f610bfa82610bd1565b9050919050565b610c0a81610bf0565b8114610c14575f80fd5b50565b5f81359050610c2581610c01565b92915050565b5f819050919050565b610c3d81610c2b565b8114610c47575f80fd5b50565b5f81359050610c5881610c34565b92915050565b5f8060408385031215610c7457610c73610bcd565b5b5f610c8185828601610c17565b9250506020610c9285828601610c4a565b9150509250929050565b5f8115159050919050565b610cb081610c9c565b82525050565b5f602082019050610cc95f830184610ca7565b92915050565b610cd881610c2b565b82525050565b5f602082019050610cf15f830184610ccf565b92915050565b5f805f60608486031215610d0e57610d0d610bcd565b5b5f610d1b86828701610c17565b9350506020610d2c86828701610c17565b9250506040610d3d86828701610c4a565b9150509250925092565b5f60ff82169050919050565b610d5c81610d47565b82525050565b5f602082019050610d755f830184610d53565b92915050565b5f60208284031215610d9057610d8f610bcd565b5b5f610d9d84828501610c17565b91505092915050565b5f8060408385031215610dbc57610dbb610bcd565b5b5f610dc985828601610c17565b9250506020610dda85828601610c17565b9150509250929050565b5f60208284031215610df957610df8610bcd565b5b5f610e0684828501610c4a565b91505092915050565b7f4e487b71000000000000000000000000000000000000000000000000000000005f52602260045260245ffd5b5f6002820490506001821680610e5357607f821691505b602082108103610e6657610e65610e0f565b5b50919050565b7f4e487b71000000000000000000000000000000000000000000000000000000005f52601160045260245ffd5b5f610ea382610c2b565b9150610eae83610c2b565b9250828201905080821115610ec657610ec5610e6c565b5b92915050565b7f45524332303a2064656372656173656420616c6c6f77616e63652062656c6f775f8201527f207a65726f000000000000000000000000000000000000000000000000000000602082015250565b5f610f26602583610b2d565b9150610f3182610ecc565b604082019050919050565b5f6020820190508181035f830152610f5381610f1a565b9050919050565b5f8160011c9050919050565b5f808291508390505b6001851115610faf57808604811115610f8b57610f8a610e6c565b5b6001851615610f9a5780820291505b8081029050610fa885610f5a565b9450610f6f565b94509492505050565b5f82610fc75760019050611082565b81610fd4575f9050611082565b8160018114610fea5760028114610ff457611023565b6001915050611082565b60ff84111561100657611005610e6c565b5b8360020a91508482111561101d5761101c610e6c565b5b50611082565b5060208310610133831016604e8410600b84101617156110585782820a90508381111561105357611052610e6c565b5b611082565b6110658484846001610f66565b9250905081840481111561107c5761107b610e6c565b5b81810290505b9392505050565b5f61109382610c2b565b915061109e83610c2b565b92506110cb7fffffffffffffffffffffffffffffffffffffffffffffffffffffffffffffffff8484610fb8565b905092915050565b5f6110dd82610c2b565b91506110e883610c2b565b92508282026110f681610c2b565b9150828204841483151761110d5761110c610e6c565b5b5092915050565b7f4e487b71000000000000000000000000000000000000000000000000000000005f52601260045260245ffd5b5f61114b82610c2b565b915061115683610c2b565b92508261116657611165611114565b5b828204905092915050565b7f45524332303a20617070726f76652066726f6d20746865207a65726f206164645f8201527f7265737300000000000000000000000000000000000000000000000000000000602082015250565b5f6111cb602483610b2d565b91506111d682611171565b604082019050919050565b5f6020820190508181035f8301526111f8816111bf565b9050919050565b7f45524332303a20617070726f766520746f20746865207a65726f2061646472655f8201527f7373000000000000000000000000000000000000000000000000000000000000602082015250565b5f611259602283610b2d565b9150611264826111ff565b604082019050919050565b5f6020820190508181035f8301526112868161124d565b9050919050565b7f45524332303a20696e73756666696369656e7420616c6c6f77616e63650000005f82015250565b5f6112c1601d83610b2d565b91506112cc8261128d565b602082019050919050565b5f6020820190508181035f8301526112ee816112b5565b9050919050565b5f6112ff82610c2b565b915061130a83610c2b565b925082820390508181111561132257611321610e6c565b5b92915050565b5f81905092915050565b50565b5f6113405f83611328565b915061134b82611332565b5f82019050919050565b5f61135f82611335565b9150819050919050565b7f46656520636f6e76657273696f6e206661696c656400000000000000000000005f82015250565b5f61139d601583610b2d565b91506113a882611369565b602082019050919050565b5f6020820190508181035f8301526113ca81611391565b905091905056fea2646970667358221220f5c23532da5670bc0b2ff5a315d70b9c5276fcf2fff1f8ee82c6934ea7ae931864736f6c63430008140033",
  "immutableReferences": {},
  "source": "// SPDX-License-Identifier: MIT\r\n\r\npragma solidity ^0.8.0;\r\n\r\nimport \"@openzeppelin/contracts/token/ERC20/ERC20.sol\";\r\n\r\ncontract customToken is ERC20 {\r\n    // Token details\r\n    string private _name;\r\n    string private _symbol;\r\n    uint8 private _decimals;\r\n\r\n    // Tax and fee details\r\n    uint256 private _buyTaxPercentage;\r\n    uint256 private _sellTaxPercentage;\r\n    uint256 private _feePercentage;\r\n    address private _feeConversionWallet;\r\n\r\n    constructor(\r\n        string memory name_,\r\n        string memory symbol_,\r\n        uint8 decimals_,\r\n        uint256 initialSupply_,\r\n        uint256 buyTaxPercentage_,\r\n        uint256 sellTaxPercentage_,\r\n        uint256 feePercentage_,\r\n        address feeConversionWallet_\r\n    ) ERC20(name_, symbol_) {\r\n        _name = name_;\r\n        _symbol = symbol_;\r\n        _decimals = decimals_;\r\n        _mint(msg.sender, initialSupply_);\r\n\r\n        _buyTaxPercentage = buyTaxPercentage_;\r\n        _sellTaxPercentage = sellTaxPercentage_;\r\n        _feePercentage = feePercentage_;\r\n        _feeConversionWallet = feeConversionWallet_;\r\n    }\r\n\r\n    function _transfer(\r\n        address sender,\r\n        address recipient,\r\n        uint256 amount\r\n    ) internal override {\r\n        uint256 taxPercentage = recipient == address(this)\r\n            ? _sellTaxPercentage\r\n            : _buyTaxPercentage;\r\n\r\n        if (taxPercentage > 0) {\r\n            uint256 taxAmount = (amount * taxPercentage) / 100;\r\n            uint256 taxedAmount = amount - taxAmount;\r\n\r\n            // Convert tax to ETH and send it to the designated wallet\r\n            if (_feePercentage > 0) {\r\n                uint256 feeAmount = (taxAmount * _feePercentage) / 100;\r\n                uint256 ethAmount = convertToEth(feeAmount);\r\n                (bool success, ) = _feeConversionWallet.call{value: ethAmount}(\r\n                    \"\"\r\n                );\r\n                require(success, \"Fee conversion failed\");\r\n            }\r\n\r\n            emit Transfer(sender, address(this), taxAmount);\r\n            emit Transfer(sender, recipient, taxedAmount);\r\n        } else {\r\n            emit Transfer(sender, recipient, amount);\r\n        }\r\n    }\r\n\r\n    function convertToEth(uint256 amount) public view returns (uint256) {\r\n        uint256 ethAmount = (amount * 1 ether) / (10 ** uint256(_decimals));\r\n        return ethAmount;\r\n    }\r\n\r\n    function balanceOf(address account) public view override returns (uint256) {\r\n        return super.balanceOf(account);\r\n    }\r\n}\r\n",
  "sourcePath": "C:\\Users\\Lenovo\\Desktop\\Assignment\\Token\\contracts\\customToken.sol",
  "compiler": {
    "name": "solc",
    "version": "0.8.20+commit.a1b79de6.Emscripten.clang"
  },
  "schemaVersion": "3.4.14",
  "updatedAt": "2023-07-17T06:24:28.580Z",
  "networkType": "ethereum",
  "devdoc": {
    "events": {
      "Approval(address,address,uint256)": {
        "details": "Emitted when the allowance of a `spender` for an `owner` is set by a call to {approve}. `value` is the new allowance."
      },
      "Transfer(address,address,uint256)": {
        "details": "Emitted when `value` tokens are moved from one account (`from`) to another (`to`). Note that `value` may be zero."
      }
    },
    "kind": "dev",
    "methods": {
      "allowance(address,address)": {
        "details": "See {IERC20-allowance}."
      },
      "approve(address,uint256)": {
        "details": "See {IERC20-approve}. NOTE: If `amount` is the maximum `uint256`, the allowance is not updated on `transferFrom`. This is semantically equivalent to an infinite approval. Requirements: - `spender` cannot be the zero address."
      },
      "balanceOf(address)": {
        "details": "See {IERC20-balanceOf}."
      },
      "decimals()": {
        "details": "Returns the number of decimals used to get its user representation. For example, if `decimals` equals `2`, a balance of `505` tokens should be displayed to a user as `5.05` (`505 / 10 ** 2`). Tokens usually opt for a value of 18, imitating the relationship between Ether and Wei. This is the default value returned by this function, unless it's overridden. NOTE: This information is only used for _display_ purposes: it in no way affects any of the arithmetic of the contract, including {IERC20-balanceOf} and {IERC20-transfer}."
      },
      "decreaseAllowance(address,uint256)": {
        "details": "Atomically decreases the allowance granted to `spender` by the caller. This is an alternative to {approve} that can be used as a mitigation for problems described in {IERC20-approve}. Emits an {Approval} event indicating the updated allowance. Requirements: - `spender` cannot be the zero address. - `spender` must have allowance for the caller of at least `subtractedValue`."
      },
      "increaseAllowance(address,uint256)": {
        "details": "Atomically increases the allowance granted to `spender` by the caller. This is an alternative to {approve} that can be used as a mitigation for problems described in {IERC20-approve}. Emits an {Approval} event indicating the updated allowance. Requirements: - `spender` cannot be the zero address."
      },
      "name()": {
        "details": "Returns the name of the token."
      },
      "symbol()": {
        "details": "Returns the symbol of the token, usually a shorter version of the name."
      },
      "totalSupply()": {
        "details": "See {IERC20-totalSupply}."
      },
      "transfer(address,uint256)": {
        "details": "See {IERC20-transfer}. Requirements: - `to` cannot be the zero address. - the caller must have a balance of at least `amount`."
      },
      "transferFrom(address,address,uint256)": {
        "details": "See {IERC20-transferFrom}. Emits an {Approval} event indicating the updated allowance. This is not required by the EIP. See the note at the beginning of {ERC20}. NOTE: Does not update the allowance if the current allowance is the maximum `uint256`. Requirements: - `from` and `to` cannot be the zero address. - `from` must have a balance of at least `amount`. - the caller must have allowance for ``from``'s tokens of at least `amount`."
      }
    },
    "version": 1
  },
  "userdoc": {
    "kind": "user",
    "methods": {},
    "version": 1
  }
}