{
  "contractName": "OddEvenGame",
  "abi": [
    {
      "inputs": [
        {
          "internalType": "uint256",
          "name": "_participationFee",
          "type": "uint256"
        },
        {
          "internalType": "uint256",
          "name": "_bettingLimit",
          "type": "uint256"
        }
      ],
      "stateMutability": "nonpayable",
      "type": "constructor"
    },
    {
      "anonymous": false,
      "inputs": [
        {
          "indexed": true,
          "internalType": "uint256",
          "name": "betId",
          "type": "uint256"
        },
        {
          "indexed": true,
          "internalType": "address",
          "name": "player",
          "type": "address"
        },
        {
          "indexed": false,
          "internalType": "enum OddEvenGame.Outcome",
          "name": "outcome",
          "type": "uint8"
        },
        {
          "indexed": false,
          "internalType": "uint256",
          "name": "amount",
          "type": "uint256"
        }
      ],
      "name": "BetPlaced",
      "type": "event"
    },
    {
      "anonymous": false,
      "inputs": [
        {
          "indexed": true,
          "internalType": "uint256",
          "name": "betId",
          "type": "uint256"
        },
        {
          "indexed": false,
          "internalType": "enum OddEvenGame.Outcome",
          "name": "outcome",
          "type": "uint8"
        },
        {
          "indexed": false,
          "internalType": "uint256",
          "name": "winningAmount",
          "type": "uint256"
        }
      ],
      "name": "GameResult",
      "type": "event"
    },
    {
      "anonymous": false,
      "inputs": [
        {
          "indexed": true,
          "internalType": "address",
          "name": "player",
          "type": "address"
        },
        {
          "indexed": false,
          "internalType": "uint256",
          "name": "amount",
          "type": "uint256"
        }
      ],
      "name": "Withdraw",
      "type": "event"
    },
    {
      "inputs": [
        {
          "internalType": "uint256",
          "name": "",
          "type": "uint256"
        }
      ],
      "name": "bets",
      "outputs": [
        {
          "internalType": "address",
          "name": "player",
          "type": "address"
        },
        {
          "internalType": "enum OddEvenGame.Outcome",
          "name": "outcome",
          "type": "uint8"
        },
        {
          "internalType": "uint256",
          "name": "amount",
          "type": "uint256"
        }
      ],
      "stateMutability": "view",
      "type": "function",
      "constant": true
    },
    {
      "inputs": [],
      "name": "bettingLimit",
      "outputs": [
        {
          "internalType": "uint256",
          "name": "",
          "type": "uint256"
        }
      ],
      "stateMutability": "view",
      "type": "function",
      "constant": true
    },
    {
      "inputs": [],
      "name": "gameBalance",
      "outputs": [
        {
          "internalType": "uint256",
          "name": "",
          "type": "uint256"
        }
      ],
      "stateMutability": "view",
      "type": "function",
      "constant": true
    },
    {
      "inputs": [],
      "name": "participationFee",
      "outputs": [
        {
          "internalType": "uint256",
          "name": "",
          "type": "uint256"
        }
      ],
      "stateMutability": "view",
      "type": "function",
      "constant": true
    },
    {
      "inputs": [
        {
          "internalType": "address",
          "name": "",
          "type": "address"
        },
        {
          "internalType": "uint256",
          "name": "",
          "type": "uint256"
        }
      ],
      "name": "playerBets",
      "outputs": [
        {
          "internalType": "uint256",
          "name": "",
          "type": "uint256"
        }
      ],
      "stateMutability": "view",
      "type": "function",
      "constant": true
    },
    {
      "inputs": [
        {
          "internalType": "enum OddEvenGame.Outcome",
          "name": "_outcome",
          "type": "uint8"
        }
      ],
      "name": "placeBet",
      "outputs": [],
      "stateMutability": "payable",
      "type": "function",
      "payable": true
    },
    {
      "inputs": [
        {
          "internalType": "uint256",
          "name": "_betId",
          "type": "uint256"
        }
      ],
      "name": "withdraw",
      "outputs": [],
      "stateMutability": "nonpayable",
      "type": "function"
    }
  ],
  "bytecode": "0x608060405234801562000010575f80fd5b506040516200107c3803806200107c833981810160405281019062000036919062000088565b81600281905550806003819055505050620000cd565b5f80fd5b5f819050919050565b620000648162000050565b81146200006f575f80fd5b50565b5f81519050620000828162000059565b92915050565b5f8060408385031215620000a157620000a06200004c565b5b5f620000b08582860162000072565b9250506020620000c38582860162000072565b9150509250929050565b610fa180620000db5f395ff3fe60806040526004361061006f575f3560e01c80639bb5ce301161004d5780639bb5ce30146100f5578063a108b6641461011f578063ab6b1f6814610149578063d68e4c39146101855761006f565b806322af00fa146100735780632e1a7d4d146100b157806343046844146100d9575b5f80fd5b34801561007e575f80fd5b50610099600480360381019061009491906108f0565b6101af565b6040516100a8939291906109dc565b60405180910390f35b3480156100bc575f80fd5b506100d760048036038101906100d291906108f0565b6101ff565b005b6100f360048036038101906100ee9190610a34565b6103d9565b005b348015610100575f80fd5b50610109610694565b6040516101169190610a5f565b60405180910390f35b34801561012a575f80fd5b5061013361069a565b6040516101409190610a5f565b60405180910390f35b348015610154575f80fd5b5061016f600480360381019061016a9190610aa2565b6106a0565b60405161017c9190610a5f565b60405180910390f35b348015610190575f80fd5b506101996106cb565b6040516101a69190610a5f565b60405180910390f35b5f602052805f5260405f205f91509050805f015f9054906101000a900473ffffffffffffffffffffffffffffffffffffffff1690805f0160149054906101000a900460ff16908060010154905083565b610208816106d1565b3373ffffffffffffffffffffffffffffffffffffffff165f808381526020019081526020015f205f015f9054906101000a900473ffffffffffffffffffffffffffffffffffffffff1673ffffffffffffffffffffffffffffffffffffffff16146102a7576040517f08c379a000000000000000000000000000000000000000000000000000000000815260040161029e90610b3a565b60405180910390fd5b5f805f8381526020019081526020015f2060010154116102fc576040517f08c379a00000000000000000000000000000000000000000000000000000000081526004016102f390610ba2565b60405180910390fd5b5f805f8381526020019081526020015f206001015490505f805f8481526020019081526020015f20600101819055508060045f82825461033c9190610bed565b925050819055503373ffffffffffffffffffffffffffffffffffffffff167f884edad9ce6fa2440d8a54cc123490eb96d2768479d49ff9c7366125a9424364826040516103899190610a5f565b60405180910390a23373ffffffffffffffffffffffffffffffffffffffff166108fc8290811502906040515f60405180830381858888f193505050501580156103d4573d5f803e3d5ffd5b505050565b80600160028111156103ee576103ed61095a565b5b8160028111156104015761040061095a565b5b1480610430575060028081111561041b5761041a61095a565b5b81600281111561042e5761042d61095a565b5b145b61046f576040517f08c379a000000000000000000000000000000000000000000000000000000000815260040161046690610c6a565b60405180910390fd5b34600254811015801561048457506003548111155b6104c3576040517f08c379a00000000000000000000000000000000000000000000000000000000081526004016104ba90610cf8565b60405180910390fd5b5f42336040516020016104d7929190610d7b565b604051602081830303815290604052805190602001205f1c905060405180606001604052803373ffffffffffffffffffffffffffffffffffffffff16815260200185600281111561052b5761052a61095a565b5b8152602001348152505f808381526020019081526020015f205f820151815f015f6101000a81548173ffffffffffffffffffffffffffffffffffffffff021916908373ffffffffffffffffffffffffffffffffffffffff1602179055506020820151815f0160146101000a81548160ff021916908360028111156105b2576105b161095a565b5b02179055506040820151816001015590505060015f3373ffffffffffffffffffffffffffffffffffffffff1673ffffffffffffffffffffffffffffffffffffffff1681526020019081526020015f2081908060018154018082558091505060019003905f5260205f20015f90919091909150553460045f8282546106369190610da6565b925050819055503373ffffffffffffffffffffffffffffffffffffffff16817f4f1eed5e863a822b0f9eb960dfdab2cc5a99beec4b191f2a7a9c7e28e5a155248634604051610686929190610dd9565b60405180910390a350505050565b60025481565b60045481565b6001602052815f5260405f2081815481106106b9575f80fd5b905f5260205f20015f91509150505481565b60035481565b5f805f8381526020019081526020015f2090505f60028111156106f7576106f661095a565b5b815f0160149054906101000a900460ff16600281111561071a5761071961095a565b5b0361075a576040517f08c379a000000000000000000000000000000000000000000000000000000000815260040161075190610e4a565b60405180910390fd5b5f6002610765610879565b61076f9190610e95565b60028111156107815761078061095a565b5b90505f8160028111156107975761079661095a565b5b835f0160149054906101000a900460ff1660028111156107ba576107b961095a565b5b0361083957600283600101546107d09190610ec5565b9050825f015f9054906101000a900473ffffffffffffffffffffffffffffffffffffffff1673ffffffffffffffffffffffffffffffffffffffff166108fc8290811502906040515f60405180830381858888f19350505050158015610837573d5f803e3d5ffd5b505b837ff3336c9ff1bcf95c209ce39205bb8207c96ba994485239e1619bdca2744727ae838360405161086b929190610dd9565b60405180910390a250505050565b5f42446001436108899190610bed565b4060405160200161089c93929190610f2f565b604051602081830303815290604052805190602001205f1c905090565b5f80fd5b5f819050919050565b6108cf816108bd565b81146108d9575f80fd5b50565b5f813590506108ea816108c6565b92915050565b5f60208284031215610905576109046108b9565b5b5f610912848285016108dc565b91505092915050565b5f73ffffffffffffffffffffffffffffffffffffffff82169050919050565b5f6109448261091b565b9050919050565b6109548161093a565b82525050565b7f4e487b71000000000000000000000000000000000000000000000000000000005f52602160045260245ffd5b600381106109985761099761095a565b5b50565b5f8190506109a882610987565b919050565b5f6109b78261099b565b9050919050565b6109c7816109ad565b82525050565b6109d6816108bd565b82525050565b5f6060820190506109ef5f83018661094b565b6109fc60208301856109be565b610a0960408301846109cd565b949350505050565b60038110610a1d575f80fd5b50565b5f81359050610a2e81610a11565b92915050565b5f60208284031215610a4957610a486108b9565b5b5f610a5684828501610a20565b91505092915050565b5f602082019050610a725f8301846109cd565b92915050565b610a818161093a565b8114610a8b575f80fd5b50565b5f81359050610a9c81610a78565b92915050565b5f8060408385031215610ab857610ab76108b9565b5b5f610ac585828601610a8e565b9250506020610ad6858286016108dc565b9150509250929050565b5f82825260208201905092915050565b7f4f6e6c792074686520706c617965722063616e207769746864726177000000005f82015250565b5f610b24601c83610ae0565b9150610b2f82610af0565b602082019050919050565b5f6020820190508181035f830152610b5181610b18565b9050919050565b7f4e6f2077696e6e696e6720616d6f756e7420746f2077697468647261770000005f82015250565b5f610b8c601d83610ae0565b9150610b9782610b58565b602082019050919050565b5f6020820190508181035f830152610bb981610b80565b9050919050565b7f4e487b71000000000000000000000000000000000000000000000000000000005f52601160045260245ffd5b5f610bf7826108bd565b9150610c02836108bd565b9250828203905081811115610c1a57610c19610bc0565b5b92915050565b7f496e76616c6964206f7574636f6d6500000000000000000000000000000000005f82015250565b5f610c54600f83610ae0565b9150610c5f82610c20565b602082019050919050565b5f6020820190508181035f830152610c8181610c48565b9050919050565b7f416d6f756e74206973206f757473696465207468652062657474696e67206c695f8201527f6d69747300000000000000000000000000000000000000000000000000000000602082015250565b5f610ce2602483610ae0565b9150610ced82610c88565b604082019050919050565b5f6020820190508181035f830152610d0f81610cd6565b9050919050565b5f819050919050565b610d30610d2b826108bd565b610d16565b82525050565b5f8160601b9050919050565b5f610d4c82610d36565b9050919050565b5f610d5d82610d42565b9050919050565b610d75610d708261093a565b610d53565b82525050565b5f610d868285610d1f565b602082019150610d968284610d64565b6014820191508190509392505050565b5f610db0826108bd565b9150610dbb836108bd565b9250828201905080821115610dd357610dd2610bc0565b5b92915050565b5f604082019050610dec5f8301856109be565b610df960208301846109cd565b9392505050565b7f47616d65206f7574636f6d6520697320756e646566696e6564000000000000005f82015250565b5f610e34601983610ae0565b9150610e3f82610e00565b602082019050919050565b5f6020820190508181035f830152610e6181610e28565b9050919050565b7f4e487b71000000000000000000000000000000000000000000000000000000005f52601260045260245ffd5b5f610e9f826108bd565b9150610eaa836108bd565b925082610eba57610eb9610e68565b5b828206905092915050565b5f610ecf826108bd565b9150610eda836108bd565b9250828202610ee8816108bd565b91508282048414831517610eff57610efe610bc0565b5b5092915050565b5f819050919050565b5f819050919050565b610f29610f2482610f06565b610f0f565b82525050565b5f610f3a8286610d1f565b602082019150610f4a8285610d1f565b602082019150610f5a8284610f18565b60208201915081905094935050505056fea264697066735822122007a436d9b3033ff8a81970a48bb4a05ed7996f01bdf67af2e7a242013985da9f64736f6c63430008140033",
  "immutableReferences": {},
  "source": "// SPDX-License-Identifier: MIT\r\npragma solidity ^0.8.0;\r\n\r\ncontract OddEvenGame {\r\n    enum Outcome {\r\n        Undefined,\r\n        Even,\r\n        Odd\r\n    }\r\n\r\n    struct Bet {\r\n        address player;\r\n        Outcome outcome;\r\n        uint256 amount;\r\n    }\r\n\r\n    mapping(uint256 => Bet) public bets;\r\n    mapping(address => uint256[]) public playerBets;\r\n\r\n    uint256 public participationFee;\r\n    uint256 public bettingLimit;\r\n    uint256 public gameBalance;\r\n\r\n    event BetPlaced(\r\n        uint256 indexed betId,\r\n        address indexed player,\r\n        Outcome outcome,\r\n        uint256 amount\r\n    );\r\n    event GameResult(\r\n        uint256 indexed betId,\r\n        Outcome outcome,\r\n        uint256 winningAmount\r\n    );\r\n    event Withdraw(address indexed player, uint256 amount);\r\n\r\n    constructor(uint256 _participationFee, uint256 _bettingLimit) {\r\n        participationFee = _participationFee;\r\n        bettingLimit = _bettingLimit;\r\n    }\r\n\r\n    modifier validOutcome(Outcome _outcome) {\r\n        require(\r\n            _outcome == Outcome.Even || _outcome == Outcome.Odd,\r\n            \"Invalid outcome\"\r\n        );\r\n        _;\r\n    }\r\n\r\n    modifier withinBettingLimit(uint256 _amount) {\r\n        require(\r\n            _amount >= participationFee && _amount <= bettingLimit,\r\n            \"Amount is outside the betting limits\"\r\n        );\r\n        _;\r\n    }\r\n\r\n    function placeBet(\r\n        Outcome _outcome\r\n    ) external payable validOutcome(_outcome) withinBettingLimit(msg.value) {\r\n        uint256 betId = uint256(\r\n            keccak256(abi.encodePacked(block.timestamp, msg.sender))\r\n        );\r\n        bets[betId] = Bet(msg.sender, _outcome, msg.value);\r\n        playerBets[msg.sender].push(betId);\r\n        gameBalance += msg.value;\r\n\r\n        emit BetPlaced(betId, msg.sender, _outcome, msg.value);\r\n    }\r\n\r\n    function generateRandomNumber() internal view returns (uint256) {\r\n        return\r\n            uint256(\r\n                keccak256(\r\n                    abi.encodePacked(\r\n                        block.timestamp,\r\n                        block.prevrandao,\r\n                        blockhash(block.number - 1)\r\n                    )\r\n                )\r\n            );\r\n    }\r\n\r\n    function distributeWinnings(uint256 _betId) internal {\r\n        Bet storage bet = bets[_betId];\r\n        require(bet.outcome != Outcome.Undefined, \"Game outcome is undefined\");\r\n\r\n        Outcome gameOutcome = Outcome(generateRandomNumber() % 2);\r\n        uint256 winningAmount = 0;\r\n\r\n        if (bet.outcome == gameOutcome) {\r\n            winningAmount = bet.amount * 2;\r\n            payable(bet.player).transfer(winningAmount);\r\n        }\r\n\r\n        emit GameResult(_betId, gameOutcome, winningAmount);\r\n    }\r\n\r\n    function withdraw(uint256 _betId) external {\r\n        distributeWinnings(_betId);\r\n        require(\r\n            bets[_betId].player == msg.sender,\r\n            \"Only the player can withdraw\"\r\n        );\r\n        require(bets[_betId].amount > 0, \"No winning amount to withdraw\");\r\n\r\n        uint256 amount = bets[_betId].amount;\r\n        bets[_betId].amount = 0;\r\n        gameBalance -= amount;\r\n\r\n        emit Withdraw(msg.sender, amount);\r\n        payable(msg.sender).transfer(amount);\r\n    }\r\n}\r\n",
  "sourcePath": "C:\\Users\\Lenovo\\Desktop\\Assignment\\Game\\contracts\\OddEvenGame.sol",
  "compiler": {
    "name": "solc",
    "version": "0.8.20+commit.a1b79de6.Emscripten.clang"
  },
  "schemaVersion": "3.4.14",
  "updatedAt": "2023-07-17T08:18:34.329Z",
  "networkType": "ethereum",
  "devdoc": {
    "kind": "dev",
    "methods": {},
    "version": 1
  },
  "userdoc": {
    "kind": "user",
    "methods": {},
    "version": 1
  }
}